{
  "_format": "hh-sol-artifact-1",
  "contractName": "CodePenNFT",
  "sourceName": "contracts/CodePenNFT.sol",
  "abi": [
    {
      "inputs": [],
      "stateMutability": "nonpayable",
      "type": "constructor"
    },
    {
      "anonymous": false,
      "inputs": [
        {
          "indexed": true,
          "internalType": "address",
          "name": "owner",
          "type": "address"
        },
        {
          "indexed": true,
          "internalType": "address",
          "name": "approved",
          "type": "address"
        },
        {
          "indexed": true,
          "internalType": "uint256",
          "name": "tokenId",
          "type": "uint256"
        }
      ],
      "name": "Approval",
      "type": "event"
    },
    {
      "anonymous": false,
      "inputs": [
        {
          "indexed": true,
          "internalType": "address",
          "name": "owner",
          "type": "address"
        },
        {
          "indexed": true,
          "internalType": "address",
          "name": "operator",
          "type": "address"
        },
        {
          "indexed": false,
          "internalType": "bool",
          "name": "approved",
          "type": "bool"
        }
      ],
      "name": "ApprovalForAll",
      "type": "event"
    },
    {
      "anonymous": false,
      "inputs": [
        {
          "indexed": true,
          "internalType": "address",
          "name": "previousOwner",
          "type": "address"
        },
        {
          "indexed": true,
          "internalType": "address",
          "name": "newOwner",
          "type": "address"
        }
      ],
      "name": "OwnershipTransferred",
      "type": "event"
    },
    {
      "anonymous": false,
      "inputs": [
        {
          "indexed": true,
          "internalType": "address",
          "name": "from",
          "type": "address"
        },
        {
          "indexed": true,
          "internalType": "address",
          "name": "to",
          "type": "address"
        },
        {
          "indexed": true,
          "internalType": "uint256",
          "name": "tokenId",
          "type": "uint256"
        }
      ],
      "name": "Transfer",
      "type": "event"
    },
    {
      "inputs": [
        {
          "internalType": "address",
          "name": "to",
          "type": "address"
        },
        {
          "internalType": "uint256",
          "name": "tokenId",
          "type": "uint256"
        }
      ],
      "name": "approve",
      "outputs": [],
      "stateMutability": "nonpayable",
      "type": "function"
    },
    {
      "inputs": [
        {
          "internalType": "address",
          "name": "owner",
          "type": "address"
        }
      ],
      "name": "balanceOf",
      "outputs": [
        {
          "internalType": "uint256",
          "name": "",
          "type": "uint256"
        }
      ],
      "stateMutability": "view",
      "type": "function"
    },
    {
      "inputs": [
        {
          "internalType": "uint256",
          "name": "tokenId",
          "type": "uint256"
        }
      ],
      "name": "getApproved",
      "outputs": [
        {
          "internalType": "address",
          "name": "",
          "type": "address"
        }
      ],
      "stateMutability": "view",
      "type": "function"
    },
    {
      "inputs": [
        {
          "internalType": "address",
          "name": "owner",
          "type": "address"
        },
        {
          "internalType": "address",
          "name": "operator",
          "type": "address"
        }
      ],
      "name": "isApprovedForAll",
      "outputs": [
        {
          "internalType": "bool",
          "name": "",
          "type": "bool"
        }
      ],
      "stateMutability": "view",
      "type": "function"
    },
    {
      "inputs": [
        {
          "internalType": "string",
          "name": "uri",
          "type": "string"
        }
      ],
      "name": "isContentOwned",
      "outputs": [
        {
          "internalType": "bool",
          "name": "",
          "type": "bool"
        }
      ],
      "stateMutability": "view",
      "type": "function"
    },
    {
      "inputs": [],
      "name": "name",
      "outputs": [
        {
          "internalType": "string",
          "name": "",
          "type": "string"
        }
      ],
      "stateMutability": "view",
      "type": "function"
    },
    {
      "inputs": [],
      "name": "nftCount",
      "outputs": [
        {
          "internalType": "uint256",
          "name": "",
          "type": "uint256"
        }
      ],
      "stateMutability": "view",
      "type": "function"
    },
    {
      "inputs": [],
      "name": "owner",
      "outputs": [
        {
          "internalType": "address",
          "name": "",
          "type": "address"
        }
      ],
      "stateMutability": "view",
      "type": "function"
    },
    {
      "inputs": [
        {
          "internalType": "uint256",
          "name": "tokenId",
          "type": "uint256"
        }
      ],
      "name": "ownerOf",
      "outputs": [
        {
          "internalType": "address",
          "name": "",
          "type": "address"
        }
      ],
      "stateMutability": "view",
      "type": "function"
    },
    {
      "inputs": [
        {
          "internalType": "address",
          "name": "recipient",
          "type": "address"
        },
        {
          "internalType": "string",
          "name": "metadataURI",
          "type": "string"
        }
      ],
      "name": "payToMint",
      "outputs": [
        {
          "internalType": "uint256",
          "name": "",
          "type": "uint256"
        }
      ],
      "stateMutability": "payable",
      "type": "function"
    },
    {
      "inputs": [],
      "name": "renounceOwnership",
      "outputs": [],
      "stateMutability": "nonpayable",
      "type": "function"
    },
    {
      "inputs": [
        {
          "internalType": "address",
          "name": "from",
          "type": "address"
        },
        {
          "internalType": "address",
          "name": "to",
          "type": "address"
        },
        {
          "internalType": "uint256",
          "name": "tokenId",
          "type": "uint256"
        }
      ],
      "name": "safeTransferFrom",
      "outputs": [],
      "stateMutability": "nonpayable",
      "type": "function"
    },
    {
      "inputs": [
        {
          "internalType": "address",
          "name": "from",
          "type": "address"
        },
        {
          "internalType": "address",
          "name": "to",
          "type": "address"
        },
        {
          "internalType": "uint256",
          "name": "tokenId",
          "type": "uint256"
        },
        {
          "internalType": "bytes",
          "name": "_data",
          "type": "bytes"
        }
      ],
      "name": "safeTransferFrom",
      "outputs": [],
      "stateMutability": "nonpayable",
      "type": "function"
    },
    {
      "inputs": [
        {
          "internalType": "address",
          "name": "operator",
          "type": "address"
        },
        {
          "internalType": "bool",
          "name": "approved",
          "type": "bool"
        }
      ],
      "name": "setApprovalForAll",
      "outputs": [],
      "stateMutability": "nonpayable",
      "type": "function"
    },
    {
      "inputs": [
        {
          "internalType": "bytes4",
          "name": "interfaceId",
          "type": "bytes4"
        }
      ],
      "name": "supportsInterface",
      "outputs": [
        {
          "internalType": "bool",
          "name": "",
          "type": "bool"
        }
      ],
      "stateMutability": "view",
      "type": "function"
    },
    {
      "inputs": [],
      "name": "symbol",
      "outputs": [
        {
          "internalType": "string",
          "name": "",
          "type": "string"
        }
      ],
      "stateMutability": "view",
      "type": "function"
    },
    {
      "inputs": [
        {
          "internalType": "uint256",
          "name": "tokenId",
          "type": "uint256"
        }
      ],
      "name": "tokenURI",
      "outputs": [
        {
          "internalType": "string",
          "name": "",
          "type": "string"
        }
      ],
      "stateMutability": "view",
      "type": "function"
    },
    {
      "inputs": [
        {
          "internalType": "address",
          "name": "from",
          "type": "address"
        },
        {
          "internalType": "address",
          "name": "to",
          "type": "address"
        },
        {
          "internalType": "uint256",
          "name": "tokenId",
          "type": "uint256"
        }
      ],
      "name": "transferFrom",
      "outputs": [],
      "stateMutability": "nonpayable",
      "type": "function"
    },
    {
      "inputs": [
        {
          "internalType": "address",
          "name": "newOwner",
          "type": "address"
        }
      ],
      "name": "transferOwnership",
      "outputs": [],
      "stateMutability": "nonpayable",
      "type": "function"
    }
  ],
  "bytecode": "0x60806040523480156200001157600080fd5b506040518060400160405280600a81526020017f436f646550656e4e4654000000000000000000000000000000000000000000008152506040518060400160405280600381526020017f43504e0000000000000000000000000000000000000000000000000000000000815250816000908051906020019062000096929190620001a6565b508060019080519060200190620000af929190620001a6565b505050620000d2620000c6620000d860201b60201c565b620000e060201b60201c565b620002bb565b600033905090565b6000600760009054906101000a900473ffffffffffffffffffffffffffffffffffffffff16905081600760006101000a81548173ffffffffffffffffffffffffffffffffffffffff021916908373ffffffffffffffffffffffffffffffffffffffff1602179055508173ffffffffffffffffffffffffffffffffffffffff168173ffffffffffffffffffffffffffffffffffffffff167f8be0079c531659141344cd1fd0a4f28419497f9722a3daafe3b4186f6b6457e060405160405180910390a35050565b828054620001b49062000256565b90600052602060002090601f016020900481019282620001d8576000855562000224565b82601f10620001f357805160ff191683800117855562000224565b8280016001018555821562000224579182015b828111156200022357825182559160200191906001019062000206565b5b50905062000233919062000237565b5090565b5b808211156200025257600081600090555060010162000238565b5090565b600060028204905060018216806200026f57607f821691505b602082108114156200028657620002856200028c565b5b50919050565b7f4e487b7100000000000000000000000000000000000000000000000000000000600052602260045260246000fd5b61335680620002cb6000396000f3fe6080604052600436106101145760003560e01c806370a08231116100a0578063a22cb46511610064578063a22cb465146103b8578063b88d4fde146103e1578063c87b56dd1461040a578063e985e9c514610447578063f2fde38b1461048457610114565b806370a08231146102d1578063715018a61461030e5780638da5cb5b1461032557806395d89b41146103505780639f1cabc61461037b57610114565b80630af2c6ca116100e75780630af2c6ca146101e757806323b872dd1461021257806342842e0e1461023b578063615fd9e2146102645780636352211e1461029457610114565b806301ffc9a71461011957806306fdde0314610156578063081812fc14610181578063095ea7b3146101be575b600080fd5b34801561012557600080fd5b50610140600480360381019061013b91906121d5565b6104ad565b60405161014d91906126bf565b60405180910390f35b34801561016257600080fd5b5061016b61058f565b60405161017891906126da565b60405180910390f35b34801561018d57600080fd5b506101a860048036038101906101a39190612268565b610621565b6040516101b59190612658565b60405180910390f35b3480156101ca57600080fd5b506101e560048036038101906101e09190612199565b6106a6565b005b3480156101f357600080fd5b506101fc6107be565b604051610209919061297c565b60405180910390f35b34801561021e57600080fd5b506102396004803603810190610234919061203f565b6107cf565b005b34801561024757600080fd5b50610262600480360381019061025d919061203f565b61082f565b005b61027e60048036038101906102799190612145565b61084f565b60405161028b919061297c565b60405180910390f35b3480156102a057600080fd5b506102bb60048036038101906102b69190612268565b61097b565b6040516102c89190612658565b60405180910390f35b3480156102dd57600080fd5b506102f860048036038101906102f39190611fda565b610a2d565b604051610305919061297c565b60405180910390f35b34801561031a57600080fd5b50610323610ae5565b005b34801561033157600080fd5b5061033a610b6d565b6040516103479190612658565b60405180910390f35b34801561035c57600080fd5b50610365610b97565b60405161037291906126da565b60405180910390f35b34801561038757600080fd5b506103a2600480360381019061039d9190612227565b610c29565b6040516103af91906126bf565b60405180910390f35b3480156103c457600080fd5b506103df60048036038101906103da9190612109565b610c64565b005b3480156103ed57600080fd5b506104086004803603810190610403919061208e565b610c7a565b005b34801561041657600080fd5b50610431600480360381019061042c9190612268565b610cdc565b60405161043e91906126da565b60405180910390f35b34801561045357600080fd5b5061046e60048036038101906104699190612003565b610cee565b60405161047b91906126bf565b60405180910390f35b34801561049057600080fd5b506104ab60048036038101906104a69190611fda565b610d82565b005b60007f80ac58cd000000000000000000000000000000000000000000000000000000007bffffffffffffffffffffffffffffffffffffffffffffffffffffffff1916827bffffffffffffffffffffffffffffffffffffffffffffffffffffffff1916148061057857507f5b5e139f000000000000000000000000000000000000000000000000000000007bffffffffffffffffffffffffffffffffffffffffffffffffffffffff1916827bffffffffffffffffffffffffffffffffffffffffffffffffffffffff1916145b80610588575061058782610e7a565b5b9050919050565b60606000805461059e90612bd2565b80601f01602080910402602001604051908101604052809291908181526020018280546105ca90612bd2565b80156106175780601f106105ec57610100808354040283529160200191610617565b820191906000526020600020905b8154815290600101906020018083116105fa57829003601f168201915b5050505050905090565b600061062c82610ee4565b61066b576040517f08c379a0000000000000000000000000000000000000000000000000000000008152600401610662906128bc565b60405180910390fd5b6004600083815260200190815260200160002060009054906101000a900473ffffffffffffffffffffffffffffffffffffffff169050919050565b60006106b18261097b565b90508073ffffffffffffffffffffffffffffffffffffffff168373ffffffffffffffffffffffffffffffffffffffff161415610722576040517f08c379a00000000000000000000000000000000000000000000000000000000081526004016107199061291c565b60405180910390fd5b8073ffffffffffffffffffffffffffffffffffffffff16610741610f50565b73ffffffffffffffffffffffffffffffffffffffff161480610770575061076f8161076a610f50565b610cee565b5b6107af576040517f08c379a00000000000000000000000000000000000000000000000000000000081526004016107a6906127fc565b60405180910390fd5b6107b98383610f58565b505050565b60006107ca6008611011565b905090565b6107e06107da610f50565b8261101f565b61081f576040517f08c379a00000000000000000000000000000000000000000000000000000000081526004016108169061293c565b60405180910390fd5b61082a8383836110fd565b505050565b61084a83838360405180602001604052806000815250610c7a565b505050565b60006001600983604051610863919061261d565b908152602001604051809103902060009054906101000a900460ff1660ff1614156108c3576040517f08c379a00000000000000000000000000000000000000000000000000000000081526004016108ba9061295c565b60405180910390fd5b6601c6bf5263400034101561090d576040517f08c379a00000000000000000000000000000000000000000000000000000000081526004016109049061277c565b60405180910390fd5b60006109196008611011565b90506109256008611364565b6001600984604051610937919061261d565b908152602001604051809103902060006101000a81548160ff021916908360ff160217905550610967848261137a565b6109718184611554565b8091505092915050565b6000806002600084815260200190815260200160002060009054906101000a900473ffffffffffffffffffffffffffffffffffffffff169050600073ffffffffffffffffffffffffffffffffffffffff168173ffffffffffffffffffffffffffffffffffffffff161415610a24576040517f08c379a0000000000000000000000000000000000000000000000000000000008152600401610a1b9061283c565b60405180910390fd5b80915050919050565b60008073ffffffffffffffffffffffffffffffffffffffff168273ffffffffffffffffffffffffffffffffffffffff161415610a9e576040517f08c379a0000000000000000000000000000000000000000000000000000000008152600401610a959061281c565b60405180910390fd5b600360008373ffffffffffffffffffffffffffffffffffffffff1673ffffffffffffffffffffffffffffffffffffffff168152602001908152602001600020549050919050565b610aed610f50565b73ffffffffffffffffffffffffffffffffffffffff16610b0b610b6d565b73ffffffffffffffffffffffffffffffffffffffff1614610b61576040517f08c379a0000000000000000000000000000000000000000000000000000000008152600401610b58906128dc565b60405180910390fd5b610b6b60006115c8565b565b6000600760009054906101000a900473ffffffffffffffffffffffffffffffffffffffff16905090565b606060018054610ba690612bd2565b80601f0160208091040260200160405190810160405280929190818152602001828054610bd290612bd2565b8015610c1f5780601f10610bf457610100808354040283529160200191610c1f565b820191906000526020600020905b815481529060010190602001808311610c0257829003601f168201915b5050505050905090565b60006001600983604051610c3d919061261d565b908152602001604051809103902060009054906101000a900460ff1660ff16149050919050565b610c76610c6f610f50565b838361168e565b5050565b610c8b610c85610f50565b8361101f565b610cca576040517f08c379a0000000000000000000000000000000000000000000000000000000008152600401610cc19061293c565b60405180910390fd5b610cd6848484846117fb565b50505050565b6060610ce782611857565b9050919050565b6000600560008473ffffffffffffffffffffffffffffffffffffffff1673ffffffffffffffffffffffffffffffffffffffff16815260200190815260200160002060008373ffffffffffffffffffffffffffffffffffffffff1673ffffffffffffffffffffffffffffffffffffffff16815260200190815260200160002060009054906101000a900460ff16905092915050565b610d8a610f50565b73ffffffffffffffffffffffffffffffffffffffff16610da8610b6d565b73ffffffffffffffffffffffffffffffffffffffff1614610dfe576040517f08c379a0000000000000000000000000000000000000000000000000000000008152600401610df5906128dc565b60405180910390fd5b600073ffffffffffffffffffffffffffffffffffffffff168173ffffffffffffffffffffffffffffffffffffffff161415610e6e576040517f08c379a0000000000000000000000000000000000000000000000000000000008152600401610e659061271c565b60405180910390fd5b610e77816115c8565b50565b60007f01ffc9a7000000000000000000000000000000000000000000000000000000007bffffffffffffffffffffffffffffffffffffffffffffffffffffffff1916827bffffffffffffffffffffffffffffffffffffffffffffffffffffffff1916149050919050565b60008073ffffffffffffffffffffffffffffffffffffffff166002600084815260200190815260200160002060009054906101000a900473ffffffffffffffffffffffffffffffffffffffff1673ffffffffffffffffffffffffffffffffffffffff1614159050919050565b600033905090565b816004600083815260200190815260200160002060006101000a81548173ffffffffffffffffffffffffffffffffffffffff021916908373ffffffffffffffffffffffffffffffffffffffff160217905550808273ffffffffffffffffffffffffffffffffffffffff16610fcb8361097b565b73ffffffffffffffffffffffffffffffffffffffff167f8c5be1e5ebec7d5bd14f71427d1e84f3dd0314c0f7b2291e5b200ac8c7c3b92560405160405180910390a45050565b600081600001549050919050565b600061102a82610ee4565b611069576040517f08c379a0000000000000000000000000000000000000000000000000000000008152600401611060906127dc565b60405180910390fd5b60006110748361097b565b90508073ffffffffffffffffffffffffffffffffffffffff168473ffffffffffffffffffffffffffffffffffffffff1614806110e357508373ffffffffffffffffffffffffffffffffffffffff166110cb84610621565b73ffffffffffffffffffffffffffffffffffffffff16145b806110f457506110f38185610cee565b5b91505092915050565b8273ffffffffffffffffffffffffffffffffffffffff1661111d8261097b565b73ffffffffffffffffffffffffffffffffffffffff1614611173576040517f08c379a000000000000000000000000000000000000000000000000000000000815260040161116a9061273c565b60405180910390fd5b600073ffffffffffffffffffffffffffffffffffffffff168273ffffffffffffffffffffffffffffffffffffffff1614156111e3576040517f08c379a00000000000000000000000000000000000000000000000000000000081526004016111da9061279c565b60405180910390fd5b6111ee8383836119a9565b6111f9600082610f58565b6001600360008573ffffffffffffffffffffffffffffffffffffffff1673ffffffffffffffffffffffffffffffffffffffff16815260200190815260200160002060008282546112499190612ae8565b925050819055506001600360008473ffffffffffffffffffffffffffffffffffffffff1673ffffffffffffffffffffffffffffffffffffffff16815260200190815260200160002060008282546112a09190612a61565b92505081905550816002600083815260200190815260200160002060006101000a81548173ffffffffffffffffffffffffffffffffffffffff021916908373ffffffffffffffffffffffffffffffffffffffff160217905550808273ffffffffffffffffffffffffffffffffffffffff168473ffffffffffffffffffffffffffffffffffffffff167fddf252ad1be2c89b69c2b068fc378daa952ba7f163c4a11628f55a4df523b3ef60405160405180910390a461135f8383836119ae565b505050565b6001816000016000828254019250508190555050565b600073ffffffffffffffffffffffffffffffffffffffff168273ffffffffffffffffffffffffffffffffffffffff1614156113ea576040517f08c379a00000000000000000000000000000000000000000000000000000000081526004016113e19061287c565b60405180910390fd5b6113f381610ee4565b15611433576040517f08c379a000000000000000000000000000000000000000000000000000000000815260040161142a9061275c565b60405180910390fd5b61143f600083836119a9565b6001600360008473ffffffffffffffffffffffffffffffffffffffff1673ffffffffffffffffffffffffffffffffffffffff168152602001908152602001600020600082825461148f9190612a61565b92505081905550816002600083815260200190815260200160002060006101000a81548173ffffffffffffffffffffffffffffffffffffffff021916908373ffffffffffffffffffffffffffffffffffffffff160217905550808273ffffffffffffffffffffffffffffffffffffffff16600073ffffffffffffffffffffffffffffffffffffffff167fddf252ad1be2c89b69c2b068fc378daa952ba7f163c4a11628f55a4df523b3ef60405160405180910390a4611550600083836119ae565b5050565b61155d82610ee4565b61159c576040517f08c379a00000000000000000000000000000000000000000000000000000000081526004016115939061285c565b60405180910390fd5b806006600084815260200190815260200160002090805190602001906115c3929190611dfe565b505050565b6000600760009054906101000a900473ffffffffffffffffffffffffffffffffffffffff16905081600760006101000a81548173ffffffffffffffffffffffffffffffffffffffff021916908373ffffffffffffffffffffffffffffffffffffffff1602179055508173ffffffffffffffffffffffffffffffffffffffff168173ffffffffffffffffffffffffffffffffffffffff167f8be0079c531659141344cd1fd0a4f28419497f9722a3daafe3b4186f6b6457e060405160405180910390a35050565b8173ffffffffffffffffffffffffffffffffffffffff168373ffffffffffffffffffffffffffffffffffffffff1614156116fd576040517f08c379a00000000000000000000000000000000000000000000000000000000081526004016116f4906127bc565b60405180910390fd5b80600560008573ffffffffffffffffffffffffffffffffffffffff1673ffffffffffffffffffffffffffffffffffffffff16815260200190815260200160002060008473ffffffffffffffffffffffffffffffffffffffff1673ffffffffffffffffffffffffffffffffffffffff16815260200190815260200160002060006101000a81548160ff0219169083151502179055508173ffffffffffffffffffffffffffffffffffffffff168373ffffffffffffffffffffffffffffffffffffffff167f17307eab39ab6107e8899845ad3d59bd9653f200f220920489ca2b5937696c31836040516117ee91906126bf565b60405180910390a3505050565b6118068484846110fd565b611812848484846119b3565b611851576040517f08c379a0000000000000000000000000000000000000000000000000000000008152600401611848906126fc565b60405180910390fd5b50505050565b606061186282610ee4565b6118a1576040517f08c379a00000000000000000000000000000000000000000000000000000000081526004016118989061289c565b60405180910390fd5b60006006600084815260200190815260200160002080546118c190612bd2565b80601f01602080910402602001604051908101604052809291908181526020018280546118ed90612bd2565b801561193a5780601f1061190f5761010080835404028352916020019161193a565b820191906000526020600020905b81548152906001019060200180831161191d57829003601f168201915b50505050509050600061194b611b4a565b90506000815114156119615781925050506119a4565b60008251111561199657808260405160200161197e929190612634565b604051602081830303815290604052925050506119a4565b61199f84611b87565b925050505b919050565b505050565b505050565b60006119d48473ffffffffffffffffffffffffffffffffffffffff16611c2e565b15611b3d578373ffffffffffffffffffffffffffffffffffffffff1663150b7a026119fd610f50565b8786866040518563ffffffff1660e01b8152600401611a1f9493929190612673565b602060405180830381600087803b158015611a3957600080fd5b505af1925050508015611a6a57506040513d601f19601f82011682018060405250810190611a6791906121fe565b60015b611aed573d8060008114611a9a576040519150601f19603f3d011682016040523d82523d6000602084013e611a9f565b606091505b50600081511415611ae5576040517f08c379a0000000000000000000000000000000000000000000000000000000008152600401611adc906126fc565b60405180910390fd5b805181602001fd5b63150b7a0260e01b7bffffffffffffffffffffffffffffffffffffffffffffffffffffffff1916817bffffffffffffffffffffffffffffffffffffffffffffffffffffffff191614915050611b42565b600190505b949350505050565b60606040518060400160405280600781526020017f697066733a2f2f00000000000000000000000000000000000000000000000000815250905090565b6060611b9282610ee4565b611bd1576040517f08c379a0000000000000000000000000000000000000000000000000000000008152600401611bc8906128fc565b60405180910390fd5b6000611bdb611b4a565b90506000815111611bfb5760405180602001604052806000815250611c26565b80611c0584611c51565b604051602001611c16929190612634565b6040516020818303038152906040525b915050919050565b6000808273ffffffffffffffffffffffffffffffffffffffff163b119050919050565b60606000821415611c99576040518060400160405280600181526020017f30000000000000000000000000000000000000000000000000000000000000008152509050611df9565b600082905060005b60008214611ccb578080611cb490612c35565b915050600a82611cc49190612ab7565b9150611ca1565b60008167ffffffffffffffff811115611d0d577f4e487b7100000000000000000000000000000000000000000000000000000000600052604160045260246000fd5b6040519080825280601f01601f191660200182016040528015611d3f5781602001600182028036833780820191505090505b5090505b60008514611df257600182611d589190612ae8565b9150600a85611d679190612c7e565b6030611d739190612a61565b60f81b818381518110611daf577f4e487b7100000000000000000000000000000000000000000000000000000000600052603260045260246000fd5b60200101907effffffffffffffffffffffffffffffffffffffffffffffffffffffffffffff1916908160001a905350600a85611deb9190612ab7565b9450611d43565b8093505050505b919050565b828054611e0a90612bd2565b90600052602060002090601f016020900481019282611e2c5760008555611e73565b82601f10611e4557805160ff1916838001178555611e73565b82800160010185558215611e73579182015b82811115611e72578251825591602001919060010190611e57565b5b509050611e809190611e84565b5090565b5b80821115611e9d576000816000905550600101611e85565b5090565b6000611eb4611eaf846129bc565b612997565b905082815260208101848484011115611ecc57600080fd5b611ed7848285612b90565b509392505050565b6000611ef2611eed846129ed565b612997565b905082815260208101848484011115611f0a57600080fd5b611f15848285612b90565b509392505050565b600081359050611f2c816132c4565b92915050565b600081359050611f41816132db565b92915050565b600081359050611f56816132f2565b92915050565b600081519050611f6b816132f2565b92915050565b600082601f830112611f8257600080fd5b8135611f92848260208601611ea1565b91505092915050565b600082601f830112611fac57600080fd5b8135611fbc848260208601611edf565b91505092915050565b600081359050611fd481613309565b92915050565b600060208284031215611fec57600080fd5b6000611ffa84828501611f1d565b91505092915050565b6000806040838503121561201657600080fd5b600061202485828601611f1d565b925050602061203585828601611f1d565b9150509250929050565b60008060006060848603121561205457600080fd5b600061206286828701611f1d565b935050602061207386828701611f1d565b925050604061208486828701611fc5565b9150509250925092565b600080600080608085870312156120a457600080fd5b60006120b287828801611f1d565b94505060206120c387828801611f1d565b93505060406120d487828801611fc5565b925050606085013567ffffffffffffffff8111156120f157600080fd5b6120fd87828801611f71565b91505092959194509250565b6000806040838503121561211c57600080fd5b600061212a85828601611f1d565b925050602061213b85828601611f32565b9150509250929050565b6000806040838503121561215857600080fd5b600061216685828601611f1d565b925050602083013567ffffffffffffffff81111561218357600080fd5b61218f85828601611f9b565b9150509250929050565b600080604083850312156121ac57600080fd5b60006121ba85828601611f1d565b92505060206121cb85828601611fc5565b9150509250929050565b6000602082840312156121e757600080fd5b60006121f584828501611f47565b91505092915050565b60006020828403121561221057600080fd5b600061221e84828501611f5c565b91505092915050565b60006020828403121561223957600080fd5b600082013567ffffffffffffffff81111561225357600080fd5b61225f84828501611f9b565b91505092915050565b60006020828403121561227a57600080fd5b600061228884828501611fc5565b91505092915050565b61229a81612b1c565b82525050565b6122a981612b2e565b82525050565b60006122ba82612a1e565b6122c48185612a34565b93506122d4818560208601612b9f565b6122dd81612d6b565b840191505092915050565b60006122f382612a29565b6122fd8185612a45565b935061230d818560208601612b9f565b61231681612d6b565b840191505092915050565b600061232c82612a29565b6123368185612a56565b9350612346818560208601612b9f565b80840191505092915050565b600061235f603283612a45565b915061236a82612d7c565b604082019050919050565b6000612382602683612a45565b915061238d82612dcb565b604082019050919050565b60006123a5602583612a45565b91506123b082612e1a565b604082019050919050565b60006123c8601c83612a45565b91506123d382612e69565b602082019050919050565b60006123eb600e83612a45565b91506123f682612e92565b602082019050919050565b600061240e602483612a45565b915061241982612ebb565b604082019050919050565b6000612431601983612a45565b915061243c82612f0a565b602082019050919050565b6000612454602c83612a45565b915061245f82612f33565b604082019050919050565b6000612477603883612a45565b915061248282612f82565b604082019050919050565b600061249a602a83612a45565b91506124a582612fd1565b604082019050919050565b60006124bd602983612a45565b91506124c882613020565b604082019050919050565b60006124e0602e83612a45565b91506124eb8261306f565b604082019050919050565b6000612503602083612a45565b915061250e826130be565b602082019050919050565b6000612526603183612a45565b9150612531826130e7565b604082019050919050565b6000612549602c83612a45565b915061255482613136565b604082019050919050565b600061256c602083612a45565b915061257782613185565b602082019050919050565b600061258f602f83612a45565b915061259a826131ae565b604082019050919050565b60006125b2602183612a45565b91506125bd826131fd565b604082019050919050565b60006125d5603183612a45565b91506125e08261324c565b604082019050919050565b60006125f8601283612a45565b91506126038261329b565b602082019050919050565b61261781612b86565b82525050565b60006126298284612321565b915081905092915050565b60006126408285612321565b915061264c8284612321565b91508190509392505050565b600060208201905061266d6000830184612291565b92915050565b60006080820190506126886000830187612291565b6126956020830186612291565b6126a2604083018561260e565b81810360608301526126b481846122af565b905095945050505050565b60006020820190506126d460008301846122a0565b92915050565b600060208201905081810360008301526126f481846122e8565b905092915050565b6000602082019050818103600083015261271581612352565b9050919050565b6000602082019050818103600083015261273581612375565b9050919050565b6000602082019050818103600083015261275581612398565b9050919050565b60006020820190508181036000830152612775816123bb565b9050919050565b60006020820190508181036000830152612795816123de565b9050919050565b600060208201905081810360008301526127b581612401565b9050919050565b600060208201905081810360008301526127d581612424565b9050919050565b600060208201905081810360008301526127f581612447565b9050919050565b600060208201905081810360008301526128158161246a565b9050919050565b600060208201905081810360008301526128358161248d565b9050919050565b60006020820190508181036000830152612855816124b0565b9050919050565b60006020820190508181036000830152612875816124d3565b9050919050565b60006020820190508181036000830152612895816124f6565b9050919050565b600060208201905081810360008301526128b581612519565b9050919050565b600060208201905081810360008301526128d58161253c565b9050919050565b600060208201905081810360008301526128f58161255f565b9050919050565b6000602082019050818103600083015261291581612582565b9050919050565b60006020820190508181036000830152612935816125a5565b9050919050565b60006020820190508181036000830152612955816125c8565b9050919050565b60006020820190508181036000830152612975816125eb565b9050919050565b6000602082019050612991600083018461260e565b92915050565b60006129a16129b2565b90506129ad8282612c04565b919050565b6000604051905090565b600067ffffffffffffffff8211156129d7576129d6612d3c565b5b6129e082612d6b565b9050602081019050919050565b600067ffffffffffffffff821115612a0857612a07612d3c565b5b612a1182612d6b565b9050602081019050919050565b600081519050919050565b600081519050919050565b600082825260208201905092915050565b600082825260208201905092915050565b600081905092915050565b6000612a6c82612b86565b9150612a7783612b86565b9250827fffffffffffffffffffffffffffffffffffffffffffffffffffffffffffffffff03821115612aac57612aab612caf565b5b828201905092915050565b6000612ac282612b86565b9150612acd83612b86565b925082612add57612adc612cde565b5b828204905092915050565b6000612af382612b86565b9150612afe83612b86565b925082821015612b1157612b10612caf565b5b828203905092915050565b6000612b2782612b66565b9050919050565b60008115159050919050565b60007fffffffff0000000000000000000000000000000000000000000000000000000082169050919050565b600073ffffffffffffffffffffffffffffffffffffffff82169050919050565b6000819050919050565b82818337600083830152505050565b60005b83811015612bbd578082015181840152602081019050612ba2565b83811115612bcc576000848401525b50505050565b60006002820490506001821680612bea57607f821691505b60208210811415612bfe57612bfd612d0d565b5b50919050565b612c0d82612d6b565b810181811067ffffffffffffffff82111715612c2c57612c2b612d3c565b5b80604052505050565b6000612c4082612b86565b91507fffffffffffffffffffffffffffffffffffffffffffffffffffffffffffffffff821415612c7357612c72612caf565b5b600182019050919050565b6000612c8982612b86565b9150612c9483612b86565b925082612ca457612ca3612cde565b5b828206905092915050565b7f4e487b7100000000000000000000000000000000000000000000000000000000600052601160045260246000fd5b7f4e487b7100000000000000000000000000000000000000000000000000000000600052601260045260246000fd5b7f4e487b7100000000000000000000000000000000000000000000000000000000600052602260045260246000fd5b7f4e487b7100000000000000000000000000000000000000000000000000000000600052604160045260246000fd5b6000601f19601f8301169050919050565b7f4552433732313a207472616e7366657220746f206e6f6e20455243373231526560008201527f63656976657220696d706c656d656e7465720000000000000000000000000000602082015250565b7f4f776e61626c653a206e6577206f776e657220697320746865207a65726f206160008201527f6464726573730000000000000000000000000000000000000000000000000000602082015250565b7f4552433732313a207472616e736665722066726f6d20696e636f72726563742060008201527f6f776e6572000000000000000000000000000000000000000000000000000000602082015250565b7f4552433732313a20746f6b656e20616c7265616479206d696e74656400000000600082015250565b7f4e6f7420456e6f75676820455448000000000000000000000000000000000000600082015250565b7f4552433732313a207472616e7366657220746f20746865207a65726f2061646460008201527f7265737300000000000000000000000000000000000000000000000000000000602082015250565b7f4552433732313a20617070726f766520746f2063616c6c657200000000000000600082015250565b7f4552433732313a206f70657261746f7220717565727920666f72206e6f6e657860008201527f697374656e7420746f6b656e0000000000000000000000000000000000000000602082015250565b7f4552433732313a20617070726f76652063616c6c6572206973206e6f74206f7760008201527f6e6572206e6f7220617070726f76656420666f7220616c6c0000000000000000602082015250565b7f4552433732313a2062616c616e636520717565727920666f7220746865207a6560008201527f726f206164647265737300000000000000000000000000000000000000000000602082015250565b7f4552433732313a206f776e657220717565727920666f72206e6f6e657869737460008201527f656e7420746f6b656e0000000000000000000000000000000000000000000000602082015250565b7f45524337323155524953746f726167653a2055524920736574206f66206e6f6e60008201527f6578697374656e7420746f6b656e000000000000000000000000000000000000602082015250565b7f4552433732313a206d696e7420746f20746865207a65726f2061646472657373600082015250565b7f45524337323155524953746f726167653a2055524920717565727920666f722060008201527f6e6f6e6578697374656e7420746f6b656e000000000000000000000000000000602082015250565b7f4552433732313a20617070726f76656420717565727920666f72206e6f6e657860008201527f697374656e7420746f6b656e0000000000000000000000000000000000000000602082015250565b7f4f776e61626c653a2063616c6c6572206973206e6f7420746865206f776e6572600082015250565b7f4552433732314d657461646174613a2055524920717565727920666f72206e6f60008201527f6e6578697374656e7420746f6b656e0000000000000000000000000000000000602082015250565b7f4552433732313a20617070726f76616c20746f2063757272656e74206f776e6560008201527f7200000000000000000000000000000000000000000000000000000000000000602082015250565b7f4552433732313a207472616e736665722063616c6c6572206973206e6f74206f60008201527f776e6572206e6f7220617070726f766564000000000000000000000000000000602082015250565b7f4e465420416c7265616479204d696e7465640000000000000000000000000000600082015250565b6132cd81612b1c565b81146132d857600080fd5b50565b6132e481612b2e565b81146132ef57600080fd5b50565b6132fb81612b3a565b811461330657600080fd5b50565b61331281612b86565b811461331d57600080fd5b5056fea264697066735822122053f8e60a831aa0671fa793be932ed22ad0c6e1c133ea027c8f84c5e5ba1ef6e064736f6c63430008040033",
  "linkReferences": {},
  "deployedLinkReferences": {}
}